:1000000032C044C043C042C041C040C03FC03EC0F7
:100010003DC03CC03BC03AC039C038C037C036C014
:1000200035C034C033C0001F000000001F00001F97
:10003000101010101F00001F181818181F00001FA4
:100040001C1C1C1C1F00001F1E1E1E1E1F00001F4C
:100050001F1F1F1F1F0003070F1F0F070300181C80
:100060001E1F1E1C180011241FBECFE5D4E0DEBFEA
:10007000CDBF10E0A0E6B0E0E0E2F4E002C0059001
:100080000D92A637B107D9F702D0C8C1B9CF1F93D7
:10009000CF93DF93DBD035D137D182E060E091D0D0
:1000A00080E690E06DE079D083E061E08AD08EE672
:1000B00090E066E072D080E197E229E130E0F9015A
:1000C0003197F1F70197D9F725D188E893E129E134
:1000D00030E0F9013197F1F70197D9F71ED180E1AE
:1000E00097E229E130E0F9013197F1F70197D9F76B
:1000F00010E0C0E5D3EC812FF7D0CE010197F1F7E6
:100100001F5F1031C1F780E090E0DF91CF911F9128
:100110000895282F207F22BB909A939A2AEF30E0EF
:10012000F9013197F1F793989098F9013197F1F728
:1001300090E044E0880F991F4A95E1F782BB909ABE
:10014000939AC9010197F1F793989098C901019783
:10015000F1F70895282F207F22BB939A2AEF30E0F1
:10016000F9013197F1F79398F9013197F1F790E0A0
:1001700054E0880F991F5A95E1F782BB939AC90101
:100180000197F1F79398C9010197F1F7089581E07C
:10019000E1DF089582E0DEDF08950F931F93CF9390
:1001A000DF93062F009741F0EC0110E003C0899126
:1001B000B0DF1F5F1017D8F3DF91CF911F910F9120
:1001C0000895623031F0633031F0613029F4805CA1
:1001D00003C08C5E01C08C5A8068BCDF08951F93F9
:1001E000CF93DF93EC01862F642FEBDF10E002C08A
:1001F00090DF1F5FFE01E10FF11D84918823C1F79D
:10020000DF91CF911F910895EF92FF920F931F936B
:10021000CF93DF937C01162F110F110F110F106474
:10022000C0E0D0E0F701EC0FFD1F0491812F8C0F8F
:1002300091DF802F6EDF2196C830D10599F7DF91CD
:10024000CF911F910F91FF90EF9008951F93CF933F
:10025000DF9386EA9EE00197F1F712BA12BA81B3F2
:10026000806F81BB81B38D6081BB80E382BB939A39
:100270002AEF30E0F9013197F1F79398F9013197BE
:10028000F1F782BB939AC9010197F1F79398C901DD
:100290000197F1F780E282BB939AC9010197F1F7C8
:1002A0009398C9010197F1F788E254DF8CE052DF9F
:1002B000C6E2D0E060E0162F1F5FCE01A5DF2896D2
:1002C000612F1830C1F7DF91CF911F9108950F93DF
:1002D0001F93082F10E003C08EE13CDF1F5F101753
:1002E000D8F31F910F9108950F931F93082F10E0DB
:1002F00003C088E12FDF1F5F1017D8F31F910F9104
:1003000008958EE027DF08958FE024DF08958CE0C4
:1003100021DF089588E01EDF08958CE01BDF08953B
:100320000F931F93082F10E003C080E113DF1F5FBE
:100330001017D8F31F910F9108950F931F93082F53
:1003400010E003C084E106DF1F5F1017D8F31F9190
:100350000F910895DF92EF92FF920F931F93CF9327
:10036000DF93D42E96E0899FC0011124242F30E022
:10037000AC01429FC001439F900D529F900D1124EC
:1003800070E039D0EB01CB0166E070E020D0E82EC0
:10039000FF2400E010E011C0C8010596C817D90776
:1003A00010F085E006C0C017D10710F08E2D01C0F7
:1003B00080E0AFDEF3940A5F1F4FFD1468F3DF9116
:1003C000CF911F910F91FF90EF90DF900895AA1B9E
:1003D000BB1B51E107C0AA1FBB1FA617B70710F030
:1003E000A61BB70B881F991F5A95A9F78095909562
:1003F000BC01CD01089597FB092E07260AD077FD91
:1004000004D0E5DF06D000201AF4709561957F4F87
:100410000895F6F7909581959F4F0895F894FFCF32
:1004200042414E474C4144455348204244003130FC
:06043000313033350000FD
:00000001FF
