:1000000012C019C018C017C016C015C014C013C044
:1000100012C011C010C00FC00EC00DC00CC00BC06C
:100020000AC009C008C011241FBECFE5D4E0DEBF5E
:10003000CDBF02D064C0E4CFFF920F931F938FEF28
:1000400087BB88BB80E4F82E29E130E009E714E2A1
:10005000B0E3A9E172E162E058E740E1F8BA80E17B
:1000600097E2F9013197F1F70197D9F708BB80E1E1
:1000700097E2F9013197F1F70197D9F718BB80E1C1
:1000800097E2F9013197F1F70197D9F7B8BB80E111
:1000900097E2F9013197F1F70197D9F7A8BB80E111
:1000A00097E2F9013197F1F70197D9F778BB80E131
:1000B00097E2F9013197F1F70197D9F768BB80E131
:1000C00097E2F9013197F1F70197D9F758BB80E131
:1000D00097E2F9013197F1F70197D9F718BA80E162
:1000E00097E2F9013197F1F70197D9F748BB80E121
:1000F00097E2F9013197F1F70197D9F7AFCFF8946B
:02010000FFCF2F
:00000001FF
