:1000000012C019C018C017C016C015C014C013C044
:1000100012C011C010C00FC00EC00DC00CC00BC06C
:100020000AC009C008C011241FBECFE5D4E0DEBF5E
:10003000CDBF02D066C0E4CFEF92FF920F931F9323
:100040008FEF81BB9FE3E92E29E130E086E0F82EB7
:100050000BE51FE4B6E6ADE67DE767E05FE74FE658
:10006000E2BA80E197E2F9013197F1F70197D9F708
:10007000F2BA80E197E2F9013197F1F70197D9F7E8
:1000800002BB80E197E2F9013197F1F70197D9F7C7
:1000900012BB80E197E2F9013197F1F70197D9F7A7
:1000A000B2BB80E197E2F9013197F1F70197D9F7F7
:1000B000A2BB80E197E2F9013197F1F70197D9F7F7
:1000C00072BB80E197E2F9013197F1F70197D9F717
:1000D00062BB80E197E2F9013197F1F70197D9F717
:1000E00052BB80E197E2F9013197F1F70197D9F717
:1000F00042BB80E197E2F9013197F1F70197D9F717
:06010000AFCFF894FFCF21
:00000001FF
