:1000000012C019C018C017C016C015C014C013C044
:1000100012C011C010C00FC00EC00DC00CC00BC06C
:100020000AC009C008C011241FBECFE5D4E0DEBF5E
:10003000CDBF02D02FC0E4CF8FEF87BB87B1806CDC
:1000400087B986B1876086B9379A4FEF32E021E0F1
:10005000389A369A3699FECF84B195B18C33910592
:1000600014F428BBF5CF8335910514F038BBF0CFDD
:1000700048BBEECF87B1806C87B986B1876086B9FF
:10008000379A0895389A369A3699FECF24B135B109
:08009000C9010895F894FFCFA7
:00000001FF
